:020000040800F2
:1000000000400020F5420008BF050008C1050008B7
:1000100000000000000000000000000000000000E0
:10002000000000000000000000000000C305000800
:100030000000000000000000C5050008C70500081A
:100040004543000845430008454300084543000870
:100050004543000845430008454300084543000860
:100060004543000845430008454300084543000850
:10007000D1050008454300084543000845430008F2
:100080004543000845430008454300084543000830
:100090004543000845430008454300084543000820
:1000A0004543000845430008454300084543000810
:1000B000454300084543000845430008E1050008A2
:1000C00010B5064C2378002B07D1054B002B02D02E
:1000D000044800E000BF0123237010BD8001002010
:1000E00000000000A0430008044B10B5002B03D013
:1000F0000349044800E000BF10BDC04600000000F6
:1001000084010020A0430008002243088B4274D3DE
:1001100003098B425FD3030A8B4244D3030B8B4208
:1001200028D3030C8B420DD3FF22090212BA030C11
:100130008B4202D31212090265D0030B8B4219D3F2
:1001400000E0090AC30B8B4201D3CB03C01A524112
:10015000830B8B4201D38B03C01A5241430B8B425A
:1001600001D34B03C01A5241030B8B4201D30B0343
:10017000C01A5241C30A8B4201D3CB02C01A52416A
:10018000830A8B4201D38B02C01A5241430A8B422D
:1001900001D34B02C01A5241030A8B4201D30B0216
:1001A000C01A5241CDD2C3098B4201D3CB01C01A30
:1001B000524183098B4201D38B01C01A524143093A
:1001C0008B4201D34B01C01A524103098B4201D328
:1001D0000B01C01A5241C3088B4201D3CB00C01A95
:1001E000524183088B4201D38B00C01A524143080D
:1001F0008B4201D34B00C01A5241411A00D2014632
:10020000524110467047FFE701B5002000F006F8A4
:1002100002BDC0460029F7D076E770477047C04658
:10022000F0B589B01422002103A804F0B1F8204BE6
:10023000596980200003014359615A6902400092C4
:10024000009A596980208002014359615A6902402D
:100250000192019A5A698021C9020A435A615B6975
:100260000B400293029B134C134D002221002800E7
:1002700001F04BFE03940127049700240594069493
:1002800003A9280001F05CFD062303930B4E04969E
:10029000059403A9280001F053FD039704960594E3
:1002A000902003A9C00501F04BFD09B0F0BDC04688
:1002B00000100240E1030000000800480000121096
:1002C00010B582B008220021684604F061F8084C9D
:1002D000084B2360200000F069FF00230093019386
:1002E00000226946200000F08BFF02B010BDC0461E
:1002F000780400200074004010B50D4C0D4B2360B5
:100300000D4B63600023A3600122E26023616361FF
:10031000A361E3612362200001F056FC002120006C
:1003200001F0B8FC0021200001F0E0FC10BDC04647
:100330002C040020005800405D3E302010B50E48CF
:100340000E4B036082235B00436000238360C02266
:100350009200C26003614361013AFF3A8261F93A57
:10036000FF3AC2610362436283620721C162036391
:10037000426301F031FE10BDC80300200038004088
:1003800010B51148114B036080235B054360802347
:100390005B048360002303730122026143618022B6
:1003A00092018261A022C261036243628362743A55
:1003B000835491229200026343639123DB008363A1
:1003C00001F082FE10BDC046CC0400200040024077
:1003D00030B585B00C22002101A803F0D9FF134CE1
:1003E000134B236000236360A360E3600125256154
:1003F0000422626123766376A576E376C222FF3219
:10040000E26123629E3AFF3AA354A562200002F003
:10041000B5FB019580235B0102930323039301A99C
:10042000200002F025FD05B030BDC0468C04002040
:100430000024014030B599B01C2200210CA803F023
:10044000A7FF10241022002107A803F0A1FF1C22FF
:100450000021684603F09CFF32230B93313B0E933F
:10046000139310930F9411940225149580231B026B
:10047000159380235B031693002417940BA800F0B8
:100480000BFF07230793089509940A94012107A8F5
:1004900001F0EEF980239B0200930694684601F078
:1004A00089FA19B030BD000030B5E7B001F058FB53
:1004B000FFF7C0FFFFF7B4FEFFF702FFFFF71CFFD7
:1004C000FFF73CFFFFF75CFFFFF782FF02F076FDCE
:1004D00000212F4800F0B2FE2E4802F011FCC82285
:1004E0005200002102A803F053FF0025002422E05F
:1004F000002429E0980002A9415852180133632BC7
:10050000F8DD1001801A4000C821C902FFF7FCFD88
:10051000214B186001AB187002F0B0FF002816D113
:100520000135ADB2002D23D090200121C00501F08E
:10053000E5FC002824D1A200184B198802ABD15049
:100540000134E4B2642CD3D000230022D7E702F0B8
:100550009BFF64235843124B186000031149FFF7B7
:10056000D3FD030000220021094800F033FED7E745
:10057000012101A802F044FF642001F013FBD3E73E
:100580008021094801F0C7FCC82001F00BFBD2E72D
:10059000780400208C0400209C010020A001002091
:1005A00000000020B80B00000008004810B502F061
:1005B000EBFB014B188010BDA00100207047704775
:1005C000FEE77047704710B501F0DAFA10BD000081
:1005D00010B5024802F0DEFB10BDC0468C040020BE
:1005E00010B5024802F0F0F810BDC046D807002050
:1005F00082B00A4B996901221143996199690A40B5
:100600000092009ADA69802149050A43DA61DB69C0
:100610000B400193019B02B07047C046001002409E
:1006200010B588B004001422002103A803F0B0FE26
:100630002268164B9A4201D008B010BD144B99693C
:1006400080208000014399619A6902400192019AD9
:100650005A69802189020A435A615B690B400293FF
:10066000029B022303930133049300230593713803
:10067000FF3803A9C00501F063FB002200210C2014
:1006800001F052FC0C2001F07FFCD5E70024014072
:100690000010024010B588B004001422002103A805
:1006A00003F076FE2268124B9A4201D008B010BDCA
:1006B000104BD969802080050143D961DA69024075
:1006C0000192019A5A69802189020A435A615B6941
:1006D0000B400293029B102303930D3B04930023D2
:1006E0000593902003A9C00501F02AFBDEE7C04670
:1006F000007400400010024010B588B004001422BD
:10070000002103A803F044FE2268134B9A4201D053
:1007100008B010BD114C62698021C9020A436261B0
:1007200063690B400193019BC0231B0103931223B8
:100730000493113B059303220692079303A90848EB
:1007400001F0FEFAE2698021C9030A43E261E3692C
:100750000B400293029BDBE7005800400010024070
:100760000004004810B588B004001422002103A83A
:1007700003F00EFE2268134B9A4201D008B010BD60
:10078000114BD9698020C0010143D961DA69024067
:100790000192019A5A698021C9020A435A615B6930
:1007A0000B400293029BE0231B020393022304935A
:1007B0000023059303220692079303A9034801F03F
:1007C000BFFADBE700380040001002400004004898
:1007D000F0B5C64600B588B004001422002103A875
:1007E00003F0D6FD22682A4B9A4203D008B004BC1D
:1007F0009046F0BD274B5969802040040143596160
:100800005A6902400092009A59698020800201438F
:1008100059615A6902400192019A5A698021C902BC
:100820000A435A615B690B400293029B4423039382
:100830000226049600240594069403250795902724
:10084000FF0503A9380001F07BFA88230393763B68
:100850009846049305940694079503A9380001F07F
:100860006FFA0123039304960594069407950A4FA3
:1008700003A9380001F064FA0396434604930594F3
:100880000694079503A9380001F05AFAAEE7C0466E
:100890000040024000100240000400484022835AF9
:1008A00002490B439BB283520020704780BFFFFF79
:1008B0004022835A02490B40835200207047C046B1
:1008C0007F40000084B010B503910492059340224C
:1008D0000123835200238352043283520C32835209
:1008E000FFF7DCFF002010BC08BC04B01847000074
:1008F000F0B503000D78AD0045192A88B2480240D2
:10090000C87802285AD00AD8002853D0012804D128
:100910008020C0000243002009E0012007E00328F6
:1009200004D1C020C0000243002000E00120A74CF9
:10093000224392B22A800A7896009E1935882DB2F9
:10094000A34F3D402A4392B21443A4B234800A7BA1
:10095000002A00D08BE04A78002A3CD050229C5AD2
:100960001C190A78D20012198024E400A4466244BB
:10097000CC886408640014800A7892009A1814885D
:10098000640606D514883D002540924C2C43A4B241
:100990001480CA78012A13D00A7892009B181A880A
:1009A0008D490A4020214A4092B288490A4392B2B6
:1009B0001A8048E08024A4002243B8E70020B6E76C
:1009C0000A7892009B181A88834911407F4A0A438B
:1009D00092B21A8037E050255C5B1C190A78D2006D
:1009E00012197E4CA4466244CC88640864001480CA
:1009F0005C5B1C190A78D2001219794CA446624437
:100A00000C69002C20D11488764D2540764C2C435F
:100A100014800A7892009A181488640406D5148801
:100A20006B4D2540714C2C43A4B214800A7892007F
:100A30009B1819886E4A1140C02292015140634AA6
:100A40000A4392B21A80F0BD3E2C06D86508E4072E
:100A500000D50135AD021580DBE76509E40600D15C
:100A6000013DAD02ADB2604C25431580D1E70A7857
:100A700092009A181488564D25405E4C2C43A4B21F
:100A8000148050255C5B1C190A78D200121980244E
:100A9000E400A44662440C896408640014805C5B32
:100AA0001C190A78D20012194C4CA44662444C8995
:100AB0006408640014804A78002A3AD10A789200C7
:100AC0009A181488640406D51488414D2540474C73
:100AD0002C43A4B214800A7892009A1814886406F1
:100AE00006D514883A4D25403A4C2C43A4B21480C4
:100AF0000A7892009A181488354D2540354C2C43BD
:100B0000A4B214800C78A4001C192288384D15401A
:100B1000C02292016A402D4D2A4392B222800A7867
:100B200092009B181A882C490A402A4392B21A80D4
:100B300089E70A7892009A181488640406D5148804
:100B4000234D2540294C2C43A4B214800A789200EE
:100B50009A181488640606D514881D4D25401D4C2E
:100B60002C43A4B214800A7892009A181488184D65
:100B700025401E4C2C43A4B21480CA78012A17D0F9
:100B80000C78A4001C192288134D2A4020256A40A5
:100B900092B20E4D2A4392B222800A7892009B189C
:100BA0001A8813491140094A0A4392B21A804AE747
:100BB0000A7892009A181488074D2540034C2C435C
:100BC000A4B21480E9E7C0468F89FFFF8080FFFF51
:100BD0008F8FFFFFC080FFFFBF8FFFFF0404000067
:100BE00006040000FF83FFFF0080FFFF80C0FFFFBF
:100BF0008FBFFFFF8081FFFF10B50B7B002B33D130
:100C00004B78002B18D00B789B00C3181A8852061B
:100C100006D51A884E4C14404E4A224392B21A808E
:100C20000B789B00C01803884B4A1A404B4B134368
:100C30009BB20380002010BD0B789B00C3181A885C
:100C4000520406D51A88424C1440454A224392B2B7
:100C50001A800B789B00C0180388424A1A403F4B09
:100C600013439BB20380E5E74B78002B37D10B7819
:100C70009B00C3181A88520406D51A88344C1440B5
:100C8000374A224392B21A800B789B00C3181A8805
:100C9000520606D51A882E4C14402E4A224392B290
:100CA0001A800B789B00C3181A88294C1440294AD3
:100CB000224392B21A800C78A40004192388294A8E
:100CC0001340264A13439BB223800B789B00C01825
:100CD000038821490B401A4392B20280AAE70B789D
:100CE0009B00C3181A88520406D51A88184C144061
:100CF0001B4A224392B21A800B789B00C3181A88B1
:100D0000520606D51A88124C1440124A224392B257
:100D10001A800B789B00C3181A880D4C1440104A97
:100D2000224392B21A800C78A400041923880A4A3C
:100D300013400A4A13439BB223800B789B00C018D0
:100D4000038808490B401A4392B2028072E7C046FA
:100D50008F8FFFFFC080FFFFBF8FFFFF8080FFFFEF
:100D600080C0FFFF8FBFFFFF4B78002B0ED00B78AA
:100D70009B00C01803880C4A1340102253409BB2BA
:100D80000A4A13439BB20380002070470B789B00F4
:100D9000C0180288064B1A4080235B015A40034B5F
:100DA00013439BB20380EFE7BF8FFFFF8080FFFFFD
:100DB0008FBFFFFF10B50B7B002B3AD14B78002B78
:100DC0001DD00B789B00C3181A88520606D51A88C6
:100DD000194C1440194A224392B21A80CB78012B45
:100DE00027D00B789B00C0180388154A1340202297
:100DF00053409BB2134A13439BB2038019E00B7814
:100E00009B00C3181A88520406D51A880A4C14404D
:100E10000D4A224392B21A800B789B00C0180288B8
:100E20000A4B1A40C0239B015A40064B13439BB206
:100E30000380002010BDC0468F8FFFFFC080FFFFE2
:100E4000BF8FFFFF8080FFFF80C0FFFF8FBFFFFFCE
:100E5000002902D14C238022C2520020704700009A
:100E60005822835A02490B439BB283520020704799
:100E70000080FFFF4423C05A80B2704700207047B3
:100E800010B501335B0810188022D20094466044EC
:100E9000002B08D00C784A781202224302800230DC
:100EA0000231013BF4E710BD70B505000C00497834
:100EB00001292BD0A26923699A4200D8D9E0D21A1D
:100EC000A261227B002A00D0EAE05032A95A6918B8
:100ED0002278D2005218A0498C466244002B00D0E0
:100EE000CBE013889D4919409D4B0B43138020781C
:100EF00080002D182A889B4B1A40C0239B015A4022
:100F0000994B13439BB22B80002070BDA2692369CB
:100F10009A421DD9D21AA261227B002A1CD02278C3
:100F2000900028180088400665D5002939D1503135
:100F3000695A6918D200521887498C466244002BBE
:100F40001CD111888548084085490143118031E052
:100F50000023A3611300DFE79EB2E28833006169DA
:100F60002800FFF78DFF5023EA5AAA182378DB00E8
:100F70009B187E4A944663441E802EE03E2B06D882
:100F80005908D80700D501318902118012E05909AA
:100F9000D80600D10139890289B271480143118014
:100FA00008E05021695A6918D20052186A498C46E3
:100FB0006244138062899BB261692800FFF760FF79
:100FC0006378002B48D123789B00EB181A88684976
:100FD0001140684A0A4392B21A80207880002D1886
:100FE0002B88654A1340302253409BB25E4A13431C
:100FF0009BB22B8088E7002923D15031695A6918A8
:10100000D200521859498C466244002B06D11188EF
:10101000524808405249014311801BE03E2B06D83C
:101020005908D80700D501318902118012E0590909
:10103000D80600D10139890289B24948014311809B
:1010400008E05021695A6918D200521847498C4665
:10105000624413802289AEE7012BBED123789B0026
:10106000EB181A8842491140444A0A4392B21A8046
:10107000B3E70023A361130023E73E2B06D85908EA
:10108000DB0700D501318902118030E75909DB0601
:1010900000D10139890289B2314B1943118026E709
:1010A000002910D15022A95A69182278D20052186A
:1010B0002E498C466244002B1AD1118827480840DB
:1010C0002749014311806278002A37D15032A95A4A
:1010D00069182278D20052181F498C466244002BAE
:1010E00019D113881D4919401D4B0B431380FEE68F
:1010F0003E2B06D85908D80700D501318902118046
:10110000E1E75909D80600D10139890289B21448AA
:1011100001431180D7E73E2B06D85908DB0700D5DD
:10112000013189021180E2E65909DB0600D101395B
:10113000890289B20A4B19431180D8E6012A00D0EE
:10114000D5E64F32A95A69182278D20052180249BE
:101150008C4662441380CAE606040000FF83FFFF4A
:101160000080FFFF8FBFFFFF8080FFFF02040000B1
:101170008F8FFFFFC080FFFFBF8FFFFF80C0FFFF8B
:1011800010B55C0810188022D20094466044002CF0
:1011900007D0028802300A70120A4A700231013CFC
:1011A000F5E7DB0701D503880B7010BD10B5041EF1
:1011B0000ED00379002B07D0022323710023236173
:1011C00001332371002010BD4371FFF763FAF3E789
:1011D0000120F8E710B582B0002401940068019066
:1011E000002908D101998A1808320192019A1360E6
:1011F000002002B010BD01998A1814320192F5E75F
:1012000070B54379012B14D0012545710223037178
:1012100006683368084C9440A3431C000B68496877
:101220000B43934023433360057100234371002037
:1012300070BD0220FCE7C046FE0F000010B54379E8
:10124000012B27D001234371022202710468226816
:101250008B4013432360002910D1026811683C239E
:101260000B403C2B05D00123037100234371002068
:1012700010BD536801210B435360F4E701680B680C
:10128000F022920313409342EDD14B6802221343A4
:101290004B60E8E70220EBE770B582B0041E00D196
:1012A0007FE20368DB072BD5B34B5A680C2313404E
:1012B000042B1DD0B04B5A680C231340082B0ED0C2
:1012C0006368012B41D0002B56D1AB4B1A68AB4958
:1012D0000A401A601A68AA490A401A603BE0A64B05
:1012E0005B68C02252021340802252029342E7D12F
:1012F000A14B1B689B0303D56368002B00D153E20D
:1013000023689B0777D59C4B5B680C221A4262D0FE
:10131000994B5A680C231340082B53D0E368002BD9
:1013200000D18AE0944A136801210B43136000F056
:1013300033FC0500904B1B689B0775D400F02CFC18
:10134000401B0228F6D903202CE28B4A1168802327
:101350005B020B4313606368002B25D000F01CFC7C
:101360000500854B1B689B03CAD400F015FC401B8D
:101370006428F6D9032015E2052B09D07E4B1A68A4
:101380007E490A401A601A687D490A401A60E2E7FD
:10139000794B19688022D2020A431A6019688022A8
:1013A00052020A431A60D6E700F0F6FB0500724BC2
:1013B0001B689B03A4D500F0EFFB401B6428F6D903
:1013C0000320EFE16C4B5B68C02252021340802285
:1013D00012029342A2D1684B1B689B0703D5E368B6
:1013E000012B00D0E2E164490B68F82293432269A3
:1013F000D20013430B6023681B0744D5E369002B1D
:101400002ED05D4A536A01210B43536200F0C4FBA6
:101410000500594B5B6A9B0735D400F0BDFB401BB0
:101420000228F6D90320BDE153490B68F822934303
:101430002269D20013430B60DDE74F4A1368012194
:101440008B43136000F0A8FB05004B4B1B689B0708
:10145000D1D500F0A1FB401B0228F6D90320A1E161
:10146000454A536A01218B43536200F095FB050006
:10147000414B5B6A9B0706D500F08EFB401B0228A0
:10148000F6D903208EE123685B0700D480E03A4B55
:10149000DB69DB001DD4384AD16980204005014357
:1014A000D161D36903400193019B0125354B1B6832
:1014B000DB0510D5A368012B21D0002B36D12E4B94
:1014C0001A6A01218A431A621A6A03318A431A622C
:1014D0001AE00025EAE72B4A116880235B000B43E2
:1014E000136000F059FB0600264B1B68DB05E1D4B6
:1014F00000F052FB801B6428F6D9032052E11E4AFB
:10150000136A01210B431362A368002B24D000F05F
:1015100043FB0600184B1B6A9B0737D400F03CFBCB
:10152000801B194B9842F5D903203BE1052B09D0CC
:10153000114B1A6A01218A431A621A6A03318A43DB
:101540001A62E1E70C4B1A6A04210A431A621A6A0A
:1015500003390A431A62D7E700F01EFB0600064B68
:101560001B6A9B0712D500F017FB801B064B9842A5
:10157000F5D9032016E1C04600100240FFFFFEFF30
:10158000FFFFFBFF0070004088130000012D39D0E1
:101590002368DB0610D56369012B39D0053357D199
:1015A000894A536B04218B435363536BF4318B4350
:1015B000A169C9000B43536323689B066ED5824B18
:1015C0005A680C2313400C2B60D07F4B5A680C23B5
:1015D0001340082B53D0236A002B7ED07A4A516BDC
:1015E00080235B020B43536300F0D6FA0500764B71
:1015F0005B6BDB0352D400F0CFFA401B0228F6D914
:101600000320CFE0704AD36970490B40D361BFE734
:101610006D4B5A6B04210A435A635A6B03390A43D0
:101620005A6300F0B9FA0500674B5B6B9B0706D461
:1016300000F0B2FA401B0228F6D90320B2E062495A
:101640004B6BF8229343A269D20013434B63B3E779
:101650005D4B5A6B04210A435A635A6B03398A4320
:101660005A6300F099FA0500574B5B6B9B07A3D5B3
:1016700000F092FA401B0228F6D9032092E0524B68
:101680005B68C022520213409342A4D14E4B5B6B65
:10169000DB0303D5236A012B00D089E0636A002BAA
:1016A00000D187E0484A51680C220A40082A60D0DD
:1016B000022B25D0444A136845490B40136000F0C3
:1016C0006BFA0400404B1B689B0150D500F064FA94
:1016D000001B0228F6D9032064E03B4A536B3D49C6
:1016E0000B40536300F058FA0500374B5B6BDB038C
:1016F000D4D500F051FA401B0228F6D9032051E05E
:10170000314A136832490B40136000F045FA050076
:101710002D4B1B689B0106D500F03EFA401B0228AA
:10172000F6D903203EE0284BDA6A0F218A43216B69
:101730000A43DA625A6828490A40E16AA06A01430A
:101740000A435A601968802252040A431A6000F062
:1017500023FA04001C4B1B689B0106D400F01CFA02
:10176000001B0228F6D903201CE000201AE000200C
:1017700018E0012B20D0144B5A68D96AC0235B02B1
:101780001340A06A834219D10F230B40216B8B4277
:1017900016D1F0239B031A40E36A9A4212D100202B
:1017A00000E0012002B070BD0120FBE70120F9E755
:1017B0000120F7E70020F5E70120F3E70120F1E73A
:1017C0000120EFE70120EDE700100240FFFFFFEFEF
:1017D000FFFFFFFEFFFFFEFFFF7FC2FF10B588B0D7
:1017E00004AA1E4B13CB13C21B6813606A461C4B22
:1017F00013CB13C21B6813601A4B5A680C23134097
:10180000082B04D00C2B26D1174808B010BD910C22
:101810000F23194004A8445C1249C96A0B40694669
:10182000C95CC0235B021A4080235B029A4208D045
:10183000C0235B029A4209D00C48FEF765FC604366
:10184000E3E70A48FEF760FC6043DEE70648FEF780
:101850005BFC6043D9E70548D7E7C046B8430008BA
:10186000CC43000800100240006CDC0200127A0039
:1018700070B504000D00002800D186E0474B1A68BF
:10188000012313408B420AD244490B68012293433F
:101890002B430B600B681A40AA4200D077E0236804
:1018A0009A070ED55B0705D53D4A5168E023DB005A
:1018B0000B4353603A4A5368F0218B43A1680B43B2
:1018C00053602368DB0735D56368012B09D0022BF1
:1018D00024D0032B28D0324A1268920705D4012065
:1018E00052E02F4A1268920353D52D494A680320CB
:1018F000824313434B6000F04FF90600284B5B68AE
:101900000C221A4063689B009A4213D000F044F9FD
:10191000801B244B9842F1D9032035E0204A1268FD
:101920009201E2D401202FE01D4A526BD203DCD495
:10193000012029E0194B1A6801231340AB4209D951
:1019400016490B68012293432B430B600B681A4026
:10195000AA4220D123685B0706D5114A5368124971
:101960000B40E1680B435360FFF738FF0C4B5A689C
:1019700012090F2313400D4AD35CD8400C4B18605A
:10198000002000F0C5F8002070BD0120FCE7012018
:10199000FAE70120F8E70120F6E7C0460020024000
:1019A0000010024088130000FFF8FFFFE04300082A
:1019B0000C00002070B582B004000368DB0337D54B
:1019C0004C4BDB69DB0067D44A4AD1698020400573
:1019D0000143D161D36903400193019B0125464B2B
:1019E0001B68DB055AD5434B1A6AC0239B001100C4
:1019F00019401A4213D0626813408B420FD03D4BFE
:101A0000186A3E4A02401E6A802149023143196227
:101A1000196A3B4E314019621A62C30752D4354AE3
:101A2000136A36490B4061680B431362012D58D08D
:101A30002368DB0706D52F4A136B03218B43A1686C
:101A40000B43136323689B0706D52A4A136B2D4962
:101A50000B40E1680B43136323689B0606D5254AB8
:101A6000136B10218B4321690B43136323689B0382
:101A700006D5204A136B80218B43A1690B43136366
:101A800023685B0532D51B4A136B40218B43616988
:101A90000B43136300202AE00025A0E7164A1168D3
:101AA00080235B000B43136000F076F80600124BB6
:101AB0001B68DB0597D400F06FF8801B6428F6D90B
:101AC000032014E000F068F806000A4B1B6A9B072D
:101AD000A5D400F061F8801B0B4B9842F5D9032088
:101AE00005E0D36909490B40D361A1E7002002B0AA
:101AF00070BDC0460010024000700040FFFCFFFFB8
:101B0000FFFFFEFFFFFFFCFF88130000FFFFFFEF5A
:101B100010B504000F4B1978FA208000FEF7F4FA94
:101B200001000D4B1868FEF7EFFA00F039FA0028B3
:101B30000DD1032C01D901200AE00130002221003F
:101B4000404200F0F1F9054B1C60002000E001204C
:101B500010BDC046040000200C000020080000203A
:101B600010B5064A136810210B4313600020FFF7DD
:101B7000CFFFFEF73DFD002010BDC0460020024013
:101B8000034A1168034B1B785B1813607047C0460B
:101B90001005002004000020014B18687047C04663
:101BA0001005002070B50400FFF7F6FF0500631C68
:101BB00002D0044B1B78E418FFF7EEFF401BA04255
:101BC000FAD370BD0400002010B5041E59D0412383
:101BD000C35C002B43D041232422E25422681368C3
:101BE00001218B4313602268274B61680B4013610E
:101BF0002268936825490B409360E368012B34D039
:101C0000226884231B02A1680B439360E368022BC4
:101C100032D0226851681E4B0B4353602268D36850
:101C20001A490B40D360236962691343A269120207
:101C300021681343CB602268E369216A0B43136078
:101C40002268136801210B4313600023636441225F
:101C50001F31A15423630132A354002010BD40332F
:101C60000022C254FEF748FDB5E7226880231B021C
:101C7000A1680B439360C9E72368802212015A6070
:101C8000C7E70120EAE7C046FFFFFFF0FF7FFFFF45
:101C900000800002F0B54123C35C202B20D120330B
:101CA000C35C012B1ED04024012202554125242370
:101CB00043550668336893433360066833680A4FB8
:101CC0003B403360066833681943316001680B6834
:101CD00013430B6020234355002303550020F0BD20
:101CE0000220FCE70220FAE7FFEFFFFFF0B54123F7
:101CF000C35C202B1ED12033C35C012B1CD040249D
:101D00000122025541252423435506683368934335
:101D1000336006683368094F3B400902194331605C
:101D200001680B6813430B602023435500230355C0
:101D30000020F0BD0220FCE70220FAE7FFF0FFFFE1
:101D4000F0B5D6464F464646C0B582B0002338E0CF
:101D5000042600E00026A64034003C4302329200F4
:101D60005F4E94515F4A14684A46D24326004D465E
:101D7000AE434D68ED0302D54D462C432600594C29
:101D800026606468260016404D68AD0302D54D46B6
:101D90002C432600534C6660A468260016404D680C
:101DA000ED0202D54D462C4326004E4CA660E46859
:101DB00022404D68AD0201D54A462243494CE260BB
:101DC00001330C682200DA4000D182E001229A40FF
:101DD00025001540A9461442F2D04C68022C01D0CF
:101DE000122C0ED1DC080834A400275807261E4008
:101DF000B6000F25B540AF430D69B5402E003E43F8
:101E000026500468A4465E000324A2462700B7407B
:101E1000B846FF4365464446A543AC464C68554624
:101E200025402C00B44065462C4304604C68651E78
:101E3000012D03D9112C01D0122C13D184683C4000
:101E4000A446CC68B44065462C43846044689443FF
:101E500022004C682409A446012465462C409C407D
:101E600014434460C26817408A68B2403A43C26073
:101E70004A68D200A4D51C4CA66901221643A6616B
:101E8000A46922400192019A9A08941CA400144E5D
:101E9000A75903261E40B4000F26A640B74390263C
:101EA000F605B04200D155E7104EB0420BD0104EAF
:101EB000B0420AD00F4EB04209D00F4EB04200D10E
:101EC00046E7052647E7012645E7022643E70326BE
:101ED00041E702B01CBC90469946A246F0BDC04600
:101EE00000000140000401400010024000040048CE
:101EF00000080048000C00480010004803690B422D
:101F000001D0012070470020FCE7002A01D0816148
:101F100070478162FCE74369194202D0090481617C
:101F200070478161FCE7000070B5002811DB830871
:101F3000134EC0339B009D5903242040C000FF2254
:101F400014008440A54389010A4082402A439A51E3
:101F500070BD0F230340083B9B0806339B00094AD2
:101F6000944663445C6803221040C000FC321500B4
:101F70008540AC4389010A40824022435A60E7E72A
:101F800000E100E000ED00E0002805DB1F23184021
:101F90001E3B8340014A13607047C04600E100E0E9
:101FA000013880235B0498420FD2094A50600948E7
:101FB000036A1B021B0AC02109060B4303620023AC
:101FC000936007331360002070470120FCE7C04690
:101FD00010E000E000ED00E010B5041E5ED000232C
:101FE00083625D33C35C002B4CD05D230222E2543C
:101FF0002268136840218B431360E368E022D2001B
:10200000934245D90022F02109018B4205D0E021FD
:10201000C9008B4201D00021A162216B002905D1AA
:10202000E021C9008B4236D9022323636368A1688B
:102030000B4321690B4361690B4380218900A0692F
:1020400001400B43E1690B43216A0B432168A06AFD
:1020500003430B60618B04230B40616A0B43616B8C
:102060000B43E1680B43216813434B602268D3693B
:102070000B490B40D361002323665D330122E254F8
:10208000002010BD5C330022C254FEF76BFBACE7AE
:1020900080225201B7E701232363C7E70120F0E75D
:1020A000FFF7FFFF10B504000023002000E001331C
:1020B000072B08D899000F228A401442F7D001223A
:1020C0009A401043F3E710BD70B5041E4ED03C2378
:1020D000C35C002B3DD03C230222E2542368013A2A
:1020E0001A60206802686368A1680B43216949048B
:1020F0000B4361690B43A1690B43E1690B43616ABF
:102100000B43A16A0B4313430360237B012B26D0AF
:10211000236B626B1343A26B13432268DB4313618F
:102120002268236B616B0B4393622368A26B1A6274
:102130002568206BFFF7B6FF286321684B680322F0
:1021400093434B6023689A603C23023AE254002098
:1021500070BD3D330022C254FEF73AFBBBE7226854
:10216000116880235B020B431360D1E70120EFE786
:1021700030B587B0041E61D0314BC35C002B1ED03C
:102180002F4B0322E2542068FEF792FB0023606885
:1021900083421BD25A01A218110029310120087074
:1021A00001390B70D38610002B3000210170916330
:1021B000D1639A1C520111510133DBB2E7E78A2344
:1021C0009B000022C25400F037FFD9E7002215E03F
:1021D0005301E3181D002A35FF3500212970013D08
:1021E0002A70033529700D3529603D33FF3319609E
:1021F00013000A335B0119510132D2B29042E7D881
:10220000230010336A4623CB23C203CB03C2616889
:10221000A268E3682068FEF755FB24230022E254FD
:10222000074B0132E254E369012B02D0002007B0D2
:1022300030BD200000F037FC0020F8E70120F6E771
:102240002902000070B504008A239B00C35C012BA7
:102250000DD08A25AD00012343550068FEF700FE2E
:102260002068FEF71BFB00236355002070BD022091
:10227000FCE770B504008A239B00C35C012B0CD0E3
:102280008A25AD00012343552333C1540068FEF76E
:10229000DFFD00236355002070BD0220FCE770B510
:1022A00004000D0049B2002926DB07202840400128
:1022B00001002931FF31611820182A30FF30002633
:1022C0000670072005400D700A61CB704A78002A1D
:1022D00000D0CD81022B1AD08A239B00E35C012B16
:1022E00018D08A25AD00012363552068FEF700FB56
:1022F00000236355002070BD0720284040010100E5
:10230000283161182018293001260670D9E70023EA
:102310000B71E1E70220EEE770B504000A004BB252
:10232000002B1EDB07230B405B0119002931FF3115
:102330004118C3182A33FF330020187007231A40AE
:102340000A708A239B00E35C012B15D08A25AD001F
:10235000012363552068FEF74FFC002363550020DE
:1023600070BD07230B405B01190028314118C318C9
:10237000293301201870E1E70220F1E770B5072545
:102380000D406C0121002931FF314118041926004C
:102390003D36FF3632602A000A32520183508218DD
:1023A0000023536022002A32FF3213702934FF3495
:1023B0002570002D04D10068FEF776FD002070BD69
:1023C0000068FEF771FDF9E707230B400A335B0154
:1023D000C3185868704770B507250D406C0121007F
:1023E000283141180419E263AA1C52018350821853
:1023F000002353602300293301221A7028342570EA
:10240000002D04D10068FEF74FFD002070BD00686C
:10241000FEF74AFDF9E70000F0B5C64600B5040036
:10242000A0E00388D34A1A40D34B13439BB20380E6
:1024300021685023CB5A2822A25CD2009B185B183B
:10244000CE4A944663441B889B059B0D6364E26BF4
:1024500094466344E3630021200000F025FE24231A
:10246000E35C002B00D17DE0236C002B00D079E0F1
:102470002422A35C802149420B43DBB2CC3120688B
:1024800043520023A3546DE05023C35A94225200B8
:10249000A25CD2009B181B18B94A944663441B885F
:1024A0009B059B0D22002932FF32D3618C218900CC
:1024B0006118D288FEF764FE22681388B1490B4088
:1024C00080210B439BB21380200000F0D5FD49E032
:1024D0003E2A06D85108D20700D501318902198059
:1024E0009AE05109D20600D10139890289B2A24A83
:1024F0001143198090E0AE00801903889FB21BB28F
:10250000002B00DA94E03B062CD523689C466644F9
:102510003388984A1A40984B13439BB23380206803
:102520005023C35A690161180A0028321278D20078
:102530009B181B18914A944663441A889205920D81
:10254000AB1C5B01E0184260C86B84466244CA63FE
:102550001B59002B00D02AE10D00283529782000D6
:1025600000F0A2FD20684423C35A1BB2002B00DBFD
:1025700025E14423C35A99B20F221D00154013428E
:10258000B9D1CB0600D44CE7028893B2120500D52E
:102590007AE71BB2002BE5DA03887A4A13408022DF
:1025A00013439BB2038020685023C35A94225200E5
:1025B000A25CD2009B181B18714A944663441B8886
:1025C0009B059B0D22002932FF32D361002B0FD0D7
:1025D000516900290CD01500D288FEF7D1FD6B6936
:1025E000EA69944663446B610021200000F04FFDCE
:1025F000236850229A5A9B18614A944663442200E9
:102600002932FF321269002A00D061E71A885E4938
:102610001140594A0A431A8021680A885B4B1A40C4
:10262000C0239B015A405A4B13439BB20B8099E73E
:102630000388544A1340802213439BB203806B01EA
:10264000E3183533FF331B78002B20D1206850333B
:10265000C35A6A01A2182932FF321278D2009B189D
:102660001B18474A944663441B889B059A0D904665
:10267000002B35D06B01E3181A002F32FF3212887D
:102680003D33FF3319684346FEF77AFD28E02068A2
:102690006B01E3182933FF331B789A0082181288E4
:1026A00052044CD55022825ADB00D3181B18334AEF
:1026B000944663441B889B059A0D9046002B31D1AC
:1026C0006B01E3182933FF331A78920023689C4684
:1026D000624413882F4919402F4B0B439BB2138040
:1026E00040462B000A335B01E1184A6842444A60C5
:1026F000690161183D31FF310A6842440A601B5983
:10270000002B06D0690161183931FF310968884210
:1027100044D26B01E3182933FF331978200000F00D
:10272000B6FCF0E66B01E3181A003132FF32128872
:102730003D33FF3319684346FEF722FDC0E75022C0
:10274000825ADB00D3181B180D4A944663441B8839
:102750009B059A0D9046002BB2D06B01E3181A002E
:102760003332FF3212883D33FF3319684346FEF798
:1027700007FDA5E70F8FFFFF0080FFFF02040000A9
:10278000060400008F0F0000FF83FFFF8FBFFFFFD5
:102790008080FFFF8F8FFFFFC080FFFF69016118FE
:1027A0002931FF3109782000FFF7E8FDABE66D0124
:1027B0006519283529782000FFF70DFED2E60020A4
:1027C00004BC9046F0BDC04670B504000068FEF73A
:1027D00051FB030400D57EE02068FEF74BFB430568
:1027E00000D57CE02068FEF745FB430405D5216851
:1027F00044228B5A5B4803408B522068FEF73AFB19
:10280000830405D5216844228B5A574803408B52D4
:102810002068FEF72FFBC30418D521684023CA5A4D
:1028200004208243CA522168CA5A04308243CA52E1
:1028300098239B00E35C012B5FD0200000F06AFC32
:10284000216844228B5A494803408B522068FEF786
:1028500011FB03055AD42068FEF70CFB030629D5AB
:10286000216844228B5A802083438B5298239B00FB
:10287000E35C002B00D066E02168043A8B5A042008
:1028800003439BB28B5221688B5A082003439BB2AF
:102890008B5298239B003F3AE25454232268D25A29
:1028A0009208183B134099229200A3500121200066
:1028B00000F00EF92068FEF7DDFA830547D42068A2
:1028C000FEF7D8FAC30505D5216844228B5A28485B
:1028D00003408B5270BD2000FFF79EFD7CE721680E
:1028E00044228B5A234803408B52200000F0EEFB19
:1028F00000212000FFF7BDFC74E798239B00002215
:10290000E2540021200000F0E3F896E7216840221D
:102910008B5A082003439BB28B5220684421435AB0
:10292000154D2B40435221688B5A042003439BB220
:102930008B522068FEF79EFAC30400D58BE7200077
:1029400000F0D6FB87E7200000F0D2FBB2E7216859
:1029500044228B5A094803408B52200000F0AFFB01
:10296000ADE7C046FFBFFFFFFFDFFFFFFFEFFFFF49
:10297000FFFEFFFFFFFBFFFFFFF7FFFFFFFDFFFF76
:1029800070B5040007250D4043689D4233D84BB213
:10299000002B20DB4B0119002931FF314118C318EE
:1029A0002A33FF3300221A7001238B700D708A23A3
:1029B0009B00E35C012B20D08A239B000122E25480
:1029C0002068FEF7D1F9002D0ED08A239B0000224B
:1029D000E254002070BD6B01190028314118C31862
:1029E000293301221A70DFE78C239B00E11820684D
:1029F000FEF744FAE9E70120ECE70220EAE770B5C8
:102A000004000B000F220A4041688A422ED85AB2B5
:102A1000002A20DB07221A40520111002931FF3120
:102A2000411882182A32FF320020107000228A706A
:102A3000073213400B708A239B00E35C012B17D0F5
:102A40008A25AD00012363552068FEF7B3F9002302
:102A50006355002070BD07221A4052011100283131
:102A600041188218293201201070DFE70120F1E7B8
:102A70000220EFE710B50C060AD5072421404901D2
:102A800028314118002A08D10A73CB80002010BDDC
:102A900049012931FF314118F4E701220A730B8102
:102AA0001B0C4B81F2E701689A239B000122C25064
:102AB000083B0022C25454328B5A012003439BB27C
:102AC0008B528B5A022003439BB28B5200207047DB
:102AD0007047704730B583B004000023019303684A
:102AE000996803220A40012A14D09968204A1142A9
:102AF00018D19A6801210A439A601E4B18681E4932
:102B0000FDF702FB0190019B002B16D0019B013BBE
:102B10000193F8E71A68D20727D4DA681204E4D5DB
:102B2000002008E0A36B10221343A363E36B0F3A6A
:102B30001343E363012003B030BDFFF72DF8050018
:102B400023681B68DB070ED4FFF726F8401B02281A
:102B5000F6D9A36B10221343A363E36B0F3A13431D
:102B6000E3630120E7E70020E5E70020E3E7C04654
:102B7000170000800C00002040420F0070B5041EBA
:102B800000D1B4E0836B002B00D180E0A36BDB06A7
:102B900000D5A6E022689168042005000D40084297
:102BA00000D09EE0A16B534B19400633FF3319430D
:102BB000A163916801330B40012B6ED0D3681821BB
:102BC0008B43A1680B43D360226813699B009B0869
:102BD00061680B4313612268D36847490B40D36097
:102BE000237E9B03627ED2031343A17E4A031343D9
:102BF000A26A012A58D0802252011343E26813438B
:102C00002269022A52D02B432422A25C5200134391
:102C1000E27E012A4CD0E269C221FF318A4202D011
:102C2000216A0A4313432168CA681A43CA60E26AE8
:102C3000802149058A420DD0012A0BD0022A09D0F1
:102C4000032A07D0042A05D0052A03D0062A01D07A
:102C5000072A0AD12068416907229143416120680F
:102C60004169E56A2A400A4342612268D2682349E1
:102C70000A409A422BD0A36B12229343023A134389
:102C8000A363E36B0F3A1343E36301202EE0C363B6
:102C900034228354FDF7C4FC78E71368DB079AD429
:102CA000D3681B0497D489E72A00A6E70425AAE77E
:102CB000002903D1802252021343ACE7A26B2021EA
:102CC0000A43A263E26B1F390A43E263A3E70023CE
:102CD000E363A36B03229343023A1343A3630020ED
:102CE00004E0A36B10221343A363012070BD0120F5
:102CF000FCE7C046FDFEFFFF1902FEFFE7FF3F8332
:102D000010B5040003689B685B0736D43423C35CAA
:102D1000012B34D034230122C254437E012B1CD119
:102D20000020A36B174A1A4080235B001343A36360
:102D30000023E3633422A3542368183A1A606369BA
:102D4000082B0FD0226853681C210B435360226864
:102D5000936804210B43936010BDFFF7BBFE00286E
:102D6000FAD1DEE72268536804218B43536022685E
:102D7000536814310B435360E9E70220ECE702206B
:102D8000EAE7C046FEF0FFFF0368186C7047704723
:102D90007047000010B5040003681A68520702D596
:102DA0005A68520705D41A68120729D55A681207BB
:102DB00026D5A26BD20604D4A16B802292000A43CE
:102DC000A263D968C0221201114213D1A27E002A47
:102DD00010D11A6812070DD59A68520731D45A6873
:102DE0000C218A435A60A36B204A13400432FF32FD
:102DF0001343A3632000FDF7D9FB23680C221A605C
:102E000023681A68120602D55B681B0622D4236861
:102E10001A68D20614D55A68D20611D5A26A012AB8
:102E200002D0DA68D20708D5E26B02210A43E263D6
:102E300010221A602000FFF7ABFF236810221A60EF
:102E400010BDA36B20221343A363E36B1F3A13430C
:102E5000E363CFE7A26B80235B021343A3632000ED
:102E6000FFF795FF236880221A60D0E7FEFEFFFF80
:102E700030B583B00400002301933433C35C012BCD
:102E800000D18BE034230122C25403689A685207B0
:102E900076D4434A4868904257D09A6A01200D6818
:102EA000A84002439A62E36A8022520593421ED0F0
:102EB000012B1CD0022B1AD0032B18D0042B16D0B8
:102EC000052B14D0062B12D0072B10D02268506986
:102ED000072303408868984209D050690723984324
:102EE0005061206842698D682B40134343610B6831
:102EF0001A00103A022A4DD82A4A1268102B0ED016
:102F0000112B09D080235B041343264A13600B68FE
:102F1000102B07D0002038E08023DB03F4E7802368
:102F20001B04F1E7204B18682049FDF7EDF803007A
:102F30008000C0184000019002E0019B013B01931A
:102F4000019B002BF9D100201FE09A6A01200D6837
:102F5000A84082439A620B681A00103A022A1BD8D2
:102F6000104A1268102B09D0112B05D0104B1340BA
:102F70000C4A1360002008E00E4BF8E70E4BF6E712
:102F8000836B202213438363012034230022E25405
:102F900003B030BD0020F8E70020F6E70220F7E795
:102FA00001100000082701400C00002040420F00E3
:102FB000FFFFFFFEFFFFBFFFFFFF7FFF10B50022F7
:102FC0001149124800F06AFA002811D110490F483F
:102FD00000F080FA00280ED10E490C4801F032F9B9
:102FE00000280BD1094800F07EFA002809D110BD55
:102FF000FDF7E4FAEAE7FDF7E1FAEDE7FDF7DEFABF
:10300000F0E7FDF7DBFAF2E71000002014050020DE
:103010007000002060000020022804D005D800289D
:1030200000D0022070470120FCE70220FAE710B52B
:10303000FDF700FA10BD000000B583B002680C4B2C
:103040009A4201D003B000BD0A4AD1698020000431
:103050000143D161D36903400193019B0022002108
:103060001F20FEF761FF1F20FEF78EFFEAE7C04634
:10307000005C00400010024010B501009C239B0042
:10308000C058403B9C46614400F04AFA10BD10B560
:1030900003009C22920080584A019B183D33FF3365
:1030A0001A6800F06FFA10BD10B503009C22920060
:1030B00080584A019B18DA6B00F0B6FA10BD10B5C3
:1030C0009C239B00C05800F071FB10BD70B504003C
:1030D0008368022B09D19C25AD000121605900F0C5
:1030E00047FB605900F015FB70BDFDF767FAF2E78A
:1030F00010B504009C239B00C05800F03DFBA36961
:10310000002B04D0024A136906210B43136110BD42
:1031100000ED00E010B504008369002B05D19C236D
:103120009B00E05800F034FB10BD044A13690621EF
:103130008B431361FFF77BFFF1E7C04600ED00E032
:1031400070B504001D489C239B00C4505033E050D0
:103150001B4B036008234360063B8360036100232D
:103160008361C3610362FFF703F8002823D1B02510
:10317000AD001823002200216059FFF77BFC582383
:10318000002280216059FFF775FCC02300228121B5
:103190006059FFF76FFC88235B0000220121605912
:1031A000FFF768FC605980235B0000228221FFF753
:1031B00061FC002070BDFDF701FAD8E7D8070020B8
:1031C000005C004010B5B0239B00C058FFF73AF8F0
:1031D000FFF722FF10BD10B514001A00B0239B00AA
:1031E000C0582300FFF75BF8FFF716FF10BD10B5BE
:1031F000B0239B00C058FFF78FF8FFF70DFF10BDFD
:1032000010B5B0239B00C058FFF7BAFBFFF704FFCF
:1032100010BD10B5B0239B00C058FFF7F0FBFFF7BF
:10322000FBFE10BDB0239B00C3584AB2002A07DB47
:103230007F22114049015B182B33FF331878704708
:103240007F22114049015B182A331878F7E710B53F
:10325000B0239B00C058FFF70CF8FFF7DDFE10BD50
:1032600010B5B024A4000059FFF7B5F8FFF7D4FE5D
:1032700010BD10B5B024A4000059FFF77FF8FFF788
:10328000CBFE10BD10B5B0239B00C058FFF79CF8D3
:1032900010BD000000487047A401002070470000E6
:1032A00012230B80004870472C00002004230B8061
:1032B000004870474000002030B500230AE05D0060
:1032C00037344C5500015C0001340C190025257081
:1032D0000133DBB2934206D2040F092CEFD85D0014
:1032E00030344C55EEE730BD70B50B4B18680B4BC6
:1032F0001D680B4B1B68C018002800D170BD094C1D
:10330000A11C0822FFF7D8FF210012310422280057
:10331000FFF7D2FFF2E7C046ACF7FF1FB0F7FF1F81
:10332000B4F7FF1F4400002010B51A230B80FFF7ED
:10333000DBFF014810BDC0464400002010B50A0064
:10334000002805D10549064800F0A1FD034810BD3D
:103350000249034800F09BFDF8E7C0464C0A0020F4
:10336000F043000810B50A00034C2100034800F0A8
:103370008EFD200010BDC0464C0A00200844000805
:1033800010B50A00002805D10549064800F07FFD68
:10339000034810BD0249034800F079FDF8E7C04634
:1033A0004C0A00201C44000810B50A00002805D172
:1033B0000549064800F06BFD034810BD024903486B
:1033C00000F065FDF8E7C0464C0A002028440008DC
:1033D000002070470020704710B5064C00220649B7
:1033E000200000F038FF0549200000F03FFF0020DA
:1033F00010BDC04614050020341000204C0C0020E5
:1034000010B50A4AAE239B00D258A43BD358002BD8
:1034100001D0012010BD054C0A000100200000F081
:103420001AFF200000F029FFF4E7C0461405002031
:10343000034B01221A700278024B1A707047C04683
:10344000C4030020C503002070B504000D008021D6
:1034500089000848FEF75FFD074E2100300000F0AC
:1034600005FF300000F028FF29782000FFF7E0FF7B
:10347000002070BD0008004814050020014B18789A
:103480007047C046C4030020024B00221A70024B52
:1034900018787047C4030020C503002010B5002829
:1034A00016D0AD239B00C358002B03D0AD239B0047
:1034B0000024C450002902D0AC239B00C150A72394
:1034C0009B000121C1540270FFF73AFE002010BD9D
:1034D0000220FCE7002904D0AD239B00C15000204E
:1034E00070470220FCE710B5FFF76CFE002010BD0E
:1034F00010B5AD239B00C358002B06D01B6898471E
:10350000002800D110BD0220FCE70220FAE710B528
:10351000AD239B00C3585B689847002010BD000096
:1035200070B50400AA239B00C518280000F064F9B8
:10353000A5239B000122E250114BE25A163BE250B8
:103540001033E15C1F230B40012B0FD0022B12D054
:10355000002B05D07F2399432000FFF751FE03E0A5
:103560002900200000F022FB002070BD290020006F
:1035700000F052FBF8E72900200000F080FBF3E7A1
:10358000AE02000070B505000C001100002C38D10F
:10359000A5239B00C358032B03D0052B28D0200064
:1035A0003DE002005532FF32D368126993420DD9D3
:1035B0009B1A5530FF30C3609A4205D99AB2280051
:1035C00000F0A9FC20002AE092B2F8E7AD239B00AE
:1035D000C3581B69002B04D0A7229200825C032AE7
:1035E00004D0280000F09FFC200018E09847F8E77E
:1035F000A5239B000022C2500021FFF701FE2000FE
:103600000DE0AD239B00C3589B69002B08D0A72277
:103610009200825C032A05D121009847002070BDEA
:103620000220FCE70220FAE7F8B505000C001100C3
:10363000002C5BD1A5239B00C358022B0ED0042B7A
:1036400001D0002B03D180212800FFF7D9FDA8234A
:103650009B00EB5C012B43D02000F8BD026A466A58
:10366000B24220D8C76931003800FCF7D3FD0029E9
:1036700006D1BE4204D8A6239B00EB589F421ED31E
:10368000AD239B00EB58DB68002B04D0A7229200EF
:10369000AA5C032A21D080212800FFF7B1FD280071
:1036A00000F04DFCD3E7921B026292B200F01AFCCC
:1036B0000023002200212800FFF7DBFDC7E70022DE
:1036C000280000F00FFCA6239B000022EA500023F4
:1036D00000212800FFF7CDFDB9E728009847DAE779
:1036E000A8239B000022EA542000B6E7AD239B00EC
:1036F000C3585B69002B08D0A7229200825C032A82
:1037000005D1210098470020A7E70220A5E7022065
:10371000A3E770B50400402300220021FFF75BFD02
:103720000125AC235B00E55040260C33E650253BD9
:10373000FF3B002280212000FFF74DFDA56166625E
:10374000A7239B00E5540023A5229200A3506360A9
:103750001032A350AE239B00E358002B06D0AD23BC
:103760009B00E3585B68002120009847002070BD53
:103770000174002070470000A7239B00C15C034A2E
:1037800081540422C25400207047C0469D020000AC
:10379000A7239B00C35C042B01D000207047024B81
:1037A000C25C013BC254F8E79D02000010B5A7239C
:1037B0009B00C35C032B01D0002010BDAD239B00F8
:1037C000C358DB69002BF7D09847F5E703000020CA
:1037D0001A78002A03D00130C0B20133F8E77047ED
:1037E00010B54B88012B00D010BDA9239B000122EE
:1037F000C25000F098FBF7E70B7803704B784370EA
:103800008B78CA7812029B1843800B794A7912028E
:103810009B1883808B79CA7912029B18C3807047EA
:1038200010B504008021FFF7EBFC00212000FFF71A
:10383000E7FC10BD30B583B005000C006B460022DC
:10384000DA804A88130A072B00D9B6E09B00654945
:10385000CB589F46AC239B00C3581B68007C6A462C
:10386000911D98476B4606331B88002B03D0E288D6
:10387000002A00D0A6E0E388002B00D1AEE003B020
:1038800030BD037C002B09D1AD239B00C3589B6A3C
:103890006A46901D984702234370E3E7AD239B00DF
:1038A000C358DB6A6A46901D984702234370D9E7E4
:1038B000D2B2052A5DD892004B4B9B589F46AC2351
:1038C0009B00C3585B68002B04D0007C6A46911DA6
:1038D0009847C7E72100FFF7A3FFD0E7AC239B0081
:1038E000C3589B68002B04D0007C6A46911D984702
:1038F000B8E72100FFF794FFC1E7AC239B00C35852
:10390000DB68002B04D0007C6A46911D9847A9E72C
:103910002100FFF785FFB2E7AC239B00C3581B696A
:10392000002B04D0007C6A46911D98479AE721003D
:10393000FFF776FFA3E7AC239B00C3585B69002B1E
:1039400004D0007C6A46911D98478BE72100FFF761
:1039500067FF94E7AC239B00C3589B69002B04D0FE
:10396000007C6A46911D98477CE72100FFF758FFCD
:1039700085E72100FFF754FF81E7037C002B07D187
:10398000AD239B00C3585B6B6A46901D984769E75F
:103990002100FFF745FF72E7037C002B09D1AD231F
:1039A0009B00C3581B6B6A46901D984707234370C2
:1039B00058E72100FFF734FF61E721002800FFF7F7
:1039C0002FFF5CE7191C934200D9111C8AB26B4689
:1039D000D9800100280000F077FA4CE7280000F0B9
:1039E000A2FA4CE7384400085844000870B50400B7
:1039F0008B88002B23D1CB88002B20D14B887F2BA9
:103A00001DD87F251D40A7239B00C35C032B0ED030
:103A10000D4BC5542900FFF71AFC200000F083FA73
:103A2000002D07D0A7239B000222E2540AE0FFF7F3
:103A3000F7FE07E0A7239B000122E25402E02000EA
:103A4000FFF7EEFE70BDC0469E02000070B5040098
:103A50000D0089782A4B197001290FD8A7239B00E4
:103A6000C35C022B0ED0032B23D02900FFF7D8FE16
:103A7000234B19782000FFF74AFD02E02900FFF7E9
:103A8000CFFE70BD002911D04160A7239B00032207
:103A9000C254FFF72DFD022803D0200000F043FAA6
:103AA000EFE729002000FFF7BBFEEAE700F03BFA52
:103AB000E7E7002911D0436899421ED0D9B2FFF739
:103AC00026FD0F4B197861602000FFF711FD0228D9
:103AD0000ED0200000F027FAD3E7A7239B00022294
:103AE000C2544160FFF713FD200000F01CFAC8E744
:103AF00029002000FFF794FEC3E700F014FAC0E7A6
:103B0000C603002010B5CB88012B0BD1A7239B0047
:103B1000C35C022B09D9032B09D1011D012200F03E
:103B2000D3F901E0FFF77CFE10BD002B02D1FFF7B7
:103B300077FEF9E70023836001000831012200F0DD
:103B4000C3F9F1E710B5A7239B00C35C013B022B2F
:103B500014D8CB88022B0ED10123C360A9239B006C
:103B6000C358002B01D00323C36001000C31022293
:103B700000F0AAF910BDFFF753FEFBE7FFF750FE78
:103B8000F8E710B5A7239B00C35C013B022B0AD8C2
:103B90004B88012B00D010BDA9239B000022C250EE
:103BA00000F0C1F9F7E7FFF73BFEF4E710B50A783C
:103BB00060231340202B06D0402B04D0002B09D0CB
:103BC000FFF72EFE04E0AD239B00C3589B68984787
:103BD000002010BD4B78092B18D89B000D4AD358F4
:103BE0009F46FFF727FEF3E7FFF700FFF0E7FFF739
:103BF0002DFFEDE7FFF786FFEAE7FFF7A3FFE7E713
:103C0000FFF7EEFDE4E7FFF7BCFFE1E7FFF708FE93
:103C1000DEE7C0467044000870B505000C000A7865
:103C200060231340202B07D0402B05D0002B03D05E
:103C3000FFF7F6FD002070BDA7239B00EB5C013B66
:103C4000022B17D82379012B0FD8AD239B00EB58FB
:103C50009B68210028009847E388002BEAD10028C0
:103C6000E8D1280000F05FF9E4E721002800FFF721
:103C7000D7FDDFE721002800FFF7D2FDDAE770B5B6
:103C8000050088880A790B7860241C40202C08D015
:103C9000402C06D0002C0DD02800FFF7C1FD0024D9
:103CA00006E0AD239B00EB589B6828009847002452
:103CB000200070BD202C0AD04E78012E3ED0032E5D
:103CC0000DD0002E64D02800FFF7AAFDF0E7AD2349
:103CD0009B00EB589B68280098470400E8E7A7235F
:103CE0009B00EB5C022B05D0032B14D02800FFF7C0
:103CF00097FDDDE7002A01D0802A03D12800FFF7D5
:103D00008FFDD5E711002800FFF77AFA80212800FF
:103D1000FFF776FACCE74B88002B06D1002A04D0B7
:103D2000802A02D0CB88002B03D0280000F0FBF8BB
:103D3000BEE711002800FFF763FAF6E7A7239B0010
:103D4000EB5C022B05D0032B14D02800FFF768FD95
:103D5000AEE7002A01D0802A03D12800FFF760FDDA
:103D6000A6E711002800FFF74BFA80212800FFF793
:103D700047FA9DE74B88002B9AD1530603D12800C0
:103D800000F0D1F894E711002800FFF742FAF6E7B7
:103D9000A7239B00EB5C022B06D0032B29D0280025
:103DA000FFF73EFD340083E7002A01D0802A12D1BC
:103DB000030615D47F210A409100891889005131EA
:103DC000FF316918043100230B600222280000F043
:103DD0007BF834006CE72800FFF722FD340067E72A
:103DE0007F210A4091008918890010316918043137
:103DF000E9E744B2030622D40F20104083001B18C9
:103E00009B00EB185933FF331B68002B25D0002C87
:103E100028DB7F2313409C00E418A4005134FF34B6
:103E20002C190434002A01D0802A24D100232360D5
:103E300002222100280000F047F8340038E70F2064
:103E4000104083001B189B00EB189B69002BDED1F0
:103E50002800FFF7E5FC34002AE72800FFF7E0FC24
:103E6000340025E77F2313409C00E418A40010349D
:103E70002C190434D6E711002800FFF7D3F90028E5
:103E800002D001232360D3E700232360D0E770B57D
:103E900004000D001600002815D0FFF797FC013034
:103EA00040003080287003236B70013B08E0013430
:103EB0005A1CD2B2E8540233DBB2AA1800211170A6
:103EC00020780028F3D170BD10B51300A522920010
:103ED00002248450C36103620A000021FFF7C0F985
:103EE000002010BD10B513000A000021FFF7B8F93B
:103EF000002010BD10B51300A522920003248450A9
:103F0000393AFF3A8350043283500A000021FFF708
:103F1000B0F9002010BD10B513000A000021FFF712
:103F2000A8F9002010BD10B5A5239B000422C250A3
:103F3000002300220021FFF793F9002010BD10B5E7
:103F4000A5239B000522C250002300220021FFF779
:103F500090F9002010BD000010B5AE239B00C4589E
:103F60000433C358002B0DD080229200A05CFF28A0
:103F700008D09B68044AA25C2100984780239B00DC
:103F8000FF22E254002010BD010200004323038001
:103F900000487047A8000020432303800048704772
:103FA000EC00002043230380004870473C010020C0
:103FB0000A230380004870473001002070B50400D8
:103FC000AE25AD004659FFF75DF983239B00F05005
:103FD0006359002B0BD0AF239B00E358DB6883228F
:103FE0009200B118083AB0589847002070BD0220DE
:103FF000FCE770B504000D00AE239B00C6580833E3
:10400000C258002E1FD08B005B189B00C318D869C4
:10401000002806D04B01D218916BFCF7FBF8002961
:1040200005D085239B000022F250002070BDAB001C
:104030005B199B00E3180022DA61002329002000AD
:10404000FFF70EF9F1E70220F0E70000F0B583B0CA
:1040500005000C00AE239B00C75800236A46D371AD
:1040600001AA13800B78602216001E401A422BD042
:10407000202E5BD1CA88002A1DD05BB2002B0DDA3E
:10408000AF239B00C3589B68487839009847E28863
:1040900039002800FFF718FF00264AE04A788023FD
:1040A0009B00FA548A79244BFA54CA883900FFF7E6
:1040B00021FF00263DE0AF239B00C3589B68487852
:1040C00000229847002634E04F780A2F16D00B2F95
:1040D00023D0002F03D0FFF7A3FB022629E0A7235C
:1040E0009B00C35C032B03D0FFF79AFB022620E062
:1040F000022201A9FFF7E8FE3E001AE0A7239B0079
:10410000C35C032B03D0FFF78BFB022611E00122D7
:104110006B46D91DFFF7D8FE0BE0A7239B00C35CBD
:10412000032B06D0FFF77CFB022602E0FFF778FBAB
:104130000226300003B0F0BD0102000070B504009B
:104140008121FFF754F80025E56201212000FFF7E7
:104150004EF8B6235B00E55082212000FFF747F8B8
:104160002564AE239B00E358002B0BD0AF239B00AC
:10417000E3585B689847AE25AD006059FFF78EF8AD
:1041800000236351002070BD70B50400037C002B38
:104190003AD18026B600330002228121FFF71BF8B6
:1041A0000125E5623300022201212000FFF713F808
:1041B000B6235B00E5500823032282212000FFF78D
:1041C0000AF80123236487208000FFF763F80500C5
:1041D000AE239B00E050002832D00433E3581B6824
:1041E0009847002385229200AB500432AB50267CC6
:1041F000002E1AD18033143AAA589B0001212000C6
:10420000FFF737F8300070BD402302228121FEF70E
:10421000E2FF0125E5624023022201212000FEF792
:10422000DAFFB6235B00E550C5E781239B00EA581F
:10423000C53BFF3B01212000FFF71BF80026E1E70B
:104240000126DFE7002904D0AF239B00C1500020E6
:1042500070470220FCE7AE239B00C35882208000F9
:104260001950842189005A5000207047AE239B00CA
:10427000C258B43BD1500020704710B5AE239B000C
:10428000C258002A16D0A43BD358002B01D00120DD
:1042900010BD85239B000121D150043BD1580163FF
:1042A000D35A8221890052588839FF39FEF7D8FF46
:1042B0000020EDE70220EBE710B5AE239B00C258CB
:1042C000002A15D0037C002B09D18033812189007D
:1042D00052589B000121FEF7CCFF002010BD812326
:1042E0009B00D258C53BFF3B0121FEF7C2FFF4E71C
:1042F0000220F3E70D4885460D480E490E4A00237B
:1043000002E0D458C4500433C4188C42F9D30B4A89
:104310000B4C002301E013600432A242FBD3FEF7F2
:10432000D8FB00F011F8FCF7BFF8FEE700400020D2
:104330000000002080010020A0440008800100202F
:104340001C140020FEE7000070B500260C4D0D4C3B
:10435000641BA410A64209D1002600F021F80A4DE2
:104360000A4C641BA410A64205D170BDB300EB58E3
:1043700098470136EEE7B300EB5898470136F2E76D
:104380009844000898440008984400089C44000899
:1043900003008218934200D1704719700133F9E786
:1043A000F8B5C046F8BC08BC9E467047F8B5C04694
:0843B000F8BC08BC9E467047F2
:1043B80002030405060708090A0B0C0D0E0F10105E
:1043C800000000000102030405060708090A0B0C97
:1043D8000D0E0F100000000000000000000000009B
:1043E800010203040607080953544D333220566965
:1043F800727475616C20436F6D506F7274000000A9
:1044080053544D6963726F656C656374726F6E693E
:104418006373000043444320436F6E66696700007E
:1044280043444320496E7465726661636500000009
:10443800BA3900085438000882380008B038000833
:10444800BA390008BA3900087A39000898390008DA
:10445800BE380008DC380008FA38000818390008A7
:104468003639000854390008FA3B0008063C0008B1
:104478000C3C0008003C00080C3C0008E83B000825
:10448800E23B00080C3C0008F43B0008EE3B000847
:04449800E90000082F
:04449C00C100000853
:1044A000E8030000010000000400000000127A0090
:1044B000A1320008AD320008653300083D33000822
:1044C0002933000881330008A933000812010002D3
:1044D0000202004083044057000201020301000071
:1044E000040309041A03000000000000000000009B
:1044F00000000000000000000000000000000000BC
:10450000D9330008D1330008D533000849340008F6
:10451000894100083D4100084D40000800000000AE
:10452000593F0008F33F0008BD3F000800000000AD
:104530000000000000000000993F00088D3F0008C7
:10454000A53F0008B13F000809024300020100C076
:1045500032090400000102020100052400100105D7
:10456000240100010424020205240600010705823B
:104570000308001009040100020A000000070501F9
:1045800002400000070581024000000009024300CC
:10459000020100C0320904000001020201000524EA
:1045A0000010010524010001042402020524060074
:1045B000010705820308001009040100020A000037
:1045C0000007050102000200070581020002000049
:1045D0000A06000200000040010000000907430035
:1045E000020104C032090400000102020100052496
:1045F0000010010524010001042402020524060024
:10460000010705820308001009040100020A0000E6
:10461000000705010240000007058102400000007C
:04000005080042F5B8
:00000001FF
